:020000040800F2
:10000000B8100020450100088713000859120008A5
:1000100085130008B1010008A918000800000000BD
:100020000000000000000000000000002D15000886
:10003000CB01000800000000891300087D150008AE
:100040005F0100085F0100085F0100085F01000810
:100050005F0100085F0100085F0100085F01000800
:100060005F0100085F0100085F0100085F010008F0
:100070005F0100085F0100085F0100085F010008E0
:100080005F0100085F0100085F0100085F010008D0
:100090005F0100085F0100085F0100085F010008C0
:1000A0005F0100085F0100085F0100085F010008B0
:1000B0005F0100085F0100085F0100085F010008A0
:1000C0005F0100085F0100085F0100085F01000890
:1000D0005F0100083D1800085F0100085F0100088B
:1000E0005F0100085F0100085F0100085F01000870
:1000F0005F0100085F0100085F0100085F01000860
:100100005F0100085F0100085F0100085F0100084F
:100110005F0100085F0100085F010008D1150008B9
:100120005F0100085F0100085F0100085F0100082F
:10013000DFF80CD000F02AF8004800471D1900082D
:10014000B81000200648804706480047FEE7FEE753
:10015000FEE7FEE7FEE7FEE7FEE7FEE7FEE7FEE777
:10016000CF15000831010008D2B201E000F8012BE0
:10017000491EFBD270470022F6E710B513460A4627
:1001800004461946FFF7F0FF204610BD064C074D08
:1001900006E0E06840F0010394E807009847103457
:1001A000AC42F6D3FFF7C8FFD4190008F4190008D1
:1001B000FEE710B5044640F2064101F095FB010A46
:1001C00084F8061484F8070410BD704770470000D7
:1001D0002DE9F05F90F821100024022903D00421BA
:1001E0008163012485E001680A6822F00E020A603A
:1001F00001680A6822F001020A603F4E3E4FB215C4
:10020000DFF8F4C0DFF8F090DFF8ECA0DFF8E8B03A
:10021000DFF8E4E00168783F13011502ACF1640CEB
:10022000A9F15009AAF13C0AABF1280BAEF1140E6A
:100230004FF48018B14227D9B9420ED0614512D08F
:1002400049451DD0514518D0594518D0714501D1A7
:10025000424615E0294EB14201D1012210E0274E5D
:100260001436B14201D110220AE0244E2836B142A0
:1002700006D0224A3C32914201D11A4600E02A4679
:100280001E49091F0A602BE0B94213D0614517D0FF
:10029000494522D051451DD059451DD0714501D148
:1002A00042461AE0B14202D14FF0807215E0134E7F
:1002B000B14201D1012210E0104E1436B14201D1F9
:1002C00010220AE00D4E2836B14206D00B4A3C32CD
:1002D000914201D11A4600E02A46074980394A6016
:1002E000012180F82110002180F82010416B01B11C
:1002F00088472046BDE8F09F800002400804024085
:1003000070B5044600F018F90546601C02D0044898
:100310000078044400F010F9401BA042FAD370BDED
:10032000100000202DE9F84FDFF8C891002409F1F2
:10033000040A0AF1040B23460F270BF1040ED1E047
:100340000125A54006EA0502AA4276D1DFF8A8C138
:100350004E68A6EB0C0866452BD00DDC032E34D07E
:1003600005DC36B3012E19D0022E2FD11BE0112E41
:1003700016D0122E2AD119E0B8F5881F19D006DC44
:10038000B8F5803F15D0B8F5801F1FD111E0B8F542
:10039000001F0ED0B8F5041F18D10AE0CB6815E095
:1003A000CB681B1D12E0CB6808330FE0CB680C3321
:1003B0000CE08B682BB1012B4FF0080303D0456193
:1003C00004E0042302E0056100E00023FF2A01D8D5
:1003D000064601E000F104064FEA840501D9A5F1C3
:1003E0002005D6F8008007FA05FC28EA0C0803FA75
:1003F00005F548EA0508C6F800804D68ED0070D59F
:100400003E4DAE6946F00106AE61AD6924F00306CB
:1004100005F0010500953A4D06EB050CDCF8085097
:10042000A607360F07FA06F825EA0805DFF8D48094
:10043000404503D14FF0000825E052E0DFF8C880C6
:10044000404502D14FF001081DE0DFF8C080404573
:1004500002D14FF0020816E0DFF8B480404502D127
:100460004FF003080FE0DFF8AC80404502D14FF0B9
:10047000040808E0DFF8A080404502D14FF00508ED
:1004800001E04FF0060808FA06F848EA0508CCF83B
:1004900008804D68D9F80060ED034D4601D516433C
:1004A00000E096432E604D68DAF80060AD035546D3
:1004B00001D5164300E096432E604D68DBF80060DE
:1004C000ED025D4601D5164300E096432E604D686F
:1004D000DEF80060AD02754601D5164300E0964394
:1004E0002E60641C0A681646E2407FF429AFBDE81E
:1004F000F88F0000000401400000111000100240BD
:100500000000014000080140000C014000100140C3
:100510000014014000180140001C0140C26821EA9B
:1005200002030A4043EA0241016170470AB10161D6
:1005300070470904FBE7000001488068704700002D
:1005400010000020024881680278114481607047E1
:1005500010000020074810B5016841F0100101604B
:10056000032000F075F8002000F006F800F024F8F1
:10057000002010BD0020024070B50D4D04464FF420
:100580007A712878B1FBF0F00A490968B1FBF0F004
:1005900000F0ECFA48B9102C07D200222146501E78
:1005A00000F036F800206C6070BD012070BD0000C6
:1005B000100000201C0000200C4808B5816941F0A3
:1005C00001018161816901F001010091C16941F07E
:1005D0008051C161C06900F08050009004484168BA
:1005E00021F0E06141F00071416008BD001002405F
:1005F00000000140002809DB00F01F0201219140AA
:100600004009800000F1E020C0F8001170470000B0
:10061000F0B40E4B1B680C46C3F30223C3F107056D
:10062000042D00D90425191D072901D2002300E05B
:10063000DB1E012606FA05F1491E214099409E4025
:10064000761E16403143F0BC01F02FB90CED00E0EE
:10065000064900F0070208684FF6FF03184040EA19
:100660000220034A10430860704700000CED00E0D0
:100670000000FA052DE9F0470F46050061D0434E12
:10068000306800F00700B84209D2306820F0070057
:1006900038433060306800F00700B84251D1286814
:1006A0003B4C810712D5400703D5606840F4E060F9
:1006B00060602878000703D5606840F4605060608F
:1006C0006068A96820F0F000084360602878C007DF
:1006D00028D06868012810D02168022810D0890726
:1006E00000292EDA616821F0030101436160FFF700
:1006F00023FF804641F288390DE021688903EFE746
:100700008901EDE7FFF718FFA0EB0801494502D981
:100710000320BDE8F0876068696800F00C00B0EB6A
:10072000810FEFD1306800F00700B8420BD9306874
:1007300020F0070038433060306800F00700B8420E
:1007400001D00120E5E72878400705D56068E96811
:1007500020F4E060084360602878000706D56068F0
:10076000296920F4605040EAC100606000F038F868
:100770006168084AC1F30311515CC840064908602A
:1007800006480068FFF7F8FE0020C2E7002002409C
:1007900000100240BC1900081C00002014000020BA
:1007A0000448054900684968044AC1F30221515CC4
:1007B000C84070471C00002000100240CC190008FF
:1007C0000448054900684968044AC1F3C221515CE4
:1007D000C84070471C00002000100240CC190008DF
:1007E00012A185B00FC98DE80F0014A0144A00684B
:1007F00004905168134801F00C03042B10D0082B0F
:100800000ED1C1F38343C9031DF803000AD5516813
:1008100004AAC1F34041515C0A4A5043B0FBF1F0D5
:1008200005B0704708494843FAE700000203040591
:10083000060708090A0B0C0D0E0F1010010200002C
:100840000010024000127A0000093D002DE9F84F27
:10085000040070D02078C04DC00749D06868C0F34C
:100860008100012807D06868C0F38100022809D1FF
:100870006868C00306D52868800339D560680028F9
:10088000E7D035E06068B0F5803F0BD010B1B0F52F
:10089000A02F11D0286820F480302860286820F428
:1008A000802002E0286840F480302860606890B1C1
:1008B000FFF742FE06460AE0286840F480202860E0
:1008C000F0E700BFFFF738FE801B642873D8286864
:1008D0008003F7D50CE0FFF72FFE064605E000BFCA
:1008E000FFF72AFE801B6428F0D828688003F7D41D
:1008F00020789A4E80074FF001094FF0000839D553
:10090000686810F00C0F07D06868C0F381000228F7
:1009100009D16868C00306D42868800714D5206907
:10092000012808D110E02069B0B1C6F80090FFF7A7
:1009300003FE074605E00AE1FFF7FEFDC01B0228A3
:10094000C4D828688007F7D52868616920F0F800C6
:1009500040EAC10028600DE0C6F80080FFF7ECFD1A
:10096000074604E0FFF7E8FDC01B022823D82868EB
:100970008007F7D4207800072CD57948A169D9B130
:10098000C0F80090FFF7D8FD074604E0FFF7D4FD5C
:10099000C01B02280FD8686A8007F7D571484FF44A
:1009A000FA510068B0FBF1F0009000BF0098411EC2
:1009B0000091FAD20EE080E0C0F80080FFF7BCFDA5
:1009C000074604E0FFF7B8FDC01B022875D8686A27
:1009D0008007F7D42078400760D5E8690027C00079
:1009E00008D4E86940F08050E861E869012700F028
:1009F000805000905C480168C90513D401688346A3
:100A000041F480710160FFF797FD824606E000BF68
:100A1000FFF792FDA0EB0A0064284ED8DBF8000037
:100A2000C005F5D5E06801280AD008B1052813D023
:100A3000286A20F001002862286A20F0040002E001
:100A4000286A40F001002862E06841F2883B98B1D2
:100A5000FFF772FD82460BE0286A40F0040028622E
:100A6000EEE700BFFFF768FDA0EB0A0159455AD831
:100A7000286A8007F6D50CE0FFF75EFD824605E0A8
:100A8000FFF75AFDA0EB0A0159454CD8286A8007A8
:100A9000F6D41FB1E86920F08050E861E06988B3BE
:100AA0006968C1F38101022944D00228C6F8608038
:100AB00004D0FFF741FD044638E034E0FFF73CFD89
:100AC000074604E0FFF738FDC01B02282BD8286832
:100AD0008001F7D4206AB0F5803F05D16868A1682D
:100AE00020F4003008436860D4E9080108436968CD
:100AF00021F4741108436860C6F86090FFF71CFD8C
:100B0000044606E025E000BFFFF716FD001B0228A3
:100B100009D828688001F7D51BE000BFFFF70CFD5E
:100B2000001B022802D90320BDE8F88F2868800145
:100B3000F4D40EE00128F7D06868226A00F480310E
:100B4000914204D1616A00F47010884201D0012002
:100B5000EAE70020E8E700000010024000004242FF
:100B6000800442421C0000200070004010B5401E6E
:100B7000B0F1807F01D3012010BD4FF0E02460610F
:100B80000F21601700F091FE0020A0610720206176
:100B9000002010BD7047704770B590F83C20012AC6
:100BA0002CD0012480F83C40022280F83D200368CC
:100BB0005A689D6822F070060A6832435A60104BEA
:100BC00002689A420ED00F4B9A420BD0B2F1804F7E
:100BD00008D00D4B9A4205D00C4B9A4202D00C4BD8
:100BE0009A4204D1496825F080031943916080F846
:100BF0003D40002180F83C10084670BD022070BDC9
:100C0000002C014000340140000400400008004076
:100C1000000C004010B5040003D094F83D0010B162
:100C200007E0012010BD002084F83C00204600F0C1
:100C30001FF8022084F83D00211D206800F0CEFC42
:100C4000012084F8460084F83E0084F83F0084F8D0
:100C5000400084F8410084F8420084F8430084F89E
:100C6000440084F8450084F83D00002010BD0000D9
:100C700008B500680B49884212D10B48C16941F0A0
:100C80002001C161C069002200F020000090042111
:100C90003720FFF7BDFCBDE808403720FFF7AABCAE
:100CA00008BD0000001400400010024090F83D1004
:100CB000012901D001207047022180F83D10016810
:100CC000CA6842F00102CA6000680E4988420ED02C
:100CD0000D4988420BD0B0F1804F08D00B498842B3
:100CE00005D00B49884202D00A49884204D1816864
:100CF00001F00701062903D0016841F001010160FC
:100D000000207047002C01400034014000040040E6
:100D100000080040000C0040704770B504460068B1
:100D200001694FF00005C943890715D4C168C9435B
:100D3000890711D4E91E01610120207720688069AC
:100D40008007204602D0FFF7E7FF04E000F098F8A4
:100D5000204600F096F8257720680169C9434907C5
:100D600017D4C168C943490713D46FF00401016166
:100D7000022020772068806910F4407F204602D04E
:100D8000FFF7CAFF04E000F07BF8204600F079F896
:100D9000257720680169C943090716D4C168C9438A
:100DA000090712D46FF00801016104202077206840
:100DB000C0698007204602D0FFF7AEFF04E000F0D4
:100DC0005FF8204600F05DF8257720680169C94387
:100DD000C90617D4C168C943C90613D46FF01001FE
:100DE0000161082020772068C06910F4407F204608
:100DF00002D0FFF791FF04E000F042F8204600F037
:100E000040F8257720680169C943C90708D1C1683E
:100E1000C943C90704D1891E0161204600F032F898
:100E200020680169C943090609D4C168C943090694
:100E300005D46FF0800101612046FFF7ABFE20680A
:100E40000169C943490609D4C168C943490605D4A3
:100E50006FF040010161204600F022F8206801692E
:100E6000C94389060BD4C168C943890607D46FF00A
:100E7000200101612046BDE87040FFF78CBE70BDC7
:100E80007047704710B5044620210448FFF746FB21
:100E900021686FF00100086110BD000000180140DA
:100EA0007047704770B5026804461068D16853698E
:100EB00010F00F0F52D003F0010501F490762E438D
:100EC0005FD0C20705D0CA0503D5E26B42F001022C
:100ED000E263420705D5DA0703D0E26B42F0020273
:100EE000E263820705D5DA0703D0E26B42F0040221
:100EF000E263020707D501F020022A4303D0E26B28
:100F000042F00802E263E26B002A33D0800604D587
:100F1000880602D5204600F0BDFB20684069E16BE1
:100F2000C0F38010090700D428B3204600F0A4FBCA
:100F30002068416949061AD5416921F040014161A3
:100F4000606BA0B12D494163606BFFF741F9002848
:100F500010D0606B416BBDE870400847830610D528
:100F60008B060ED52046BDE8704000F093BB2046AE
:100F7000FFF797FF70BD2046FFF793FF0020E06367
:100F800070BD03062BD50B0629D594F8390021280E
:100F9000F6D1A068B0F5805F01D12069B0B1206AB8
:100FA000411C2162216800784860E08C401E0004EA
:100FB000000CE084E4D12068C16821F08001C160A8
:100FC0002068C16841F04001C16070BD206A00889E
:100FD000C0F308005060206A801C2062E5E74006EC
:100FE000F3D54806F1D5D168204621F04001D16003
:100FF000202184F8391000F02EF970BD6916000820
:1010000070B5040004D094F83900002510B106E052
:10101000012070BD84F83850204600F023F82420C9
:1010200084F839002068C16821F40051C16020466D
:1010300000F076FB2068016921F49041016120688D
:10104000416921F02A0141612068C16841F40051E1
:10105000C160E563202084F8390084F83A0000205C
:1010600070BD000030B585B0002400940194029456
:1010700003940068184988422CD11848816941F4CA
:1010800080418161816901F480410491816941F06D
:10109000040181618069124D00F0040004904FF456
:1010A00000700090022001900320039069462846BA
:1010B000FFF738F92815CDE900046946284602945F
:1010C000FFF730F9002201212520FFF7A1FA2520A2
:1010D000FFF790FA05B030BD003801400010024023
:1010E000000801402DE9F84F044690F83A009A466E
:1010F00016460D46202851D1EDB1E6B194F83800DE
:1011000001284BD0012084F838000027E763222013
:1011100084F83A00FFF710FAA6858146E685A068B4
:101120004FF48058404501D1206938B12E46002542
:1011300084F8387027E00120BDE8F88F0026F7E733
:101140004B46002220212046CDF800A000F044FBB1
:1011500008B10320F0E726B1A06840451BD038B1A4
:1011600008E020684068C0F3080025F8020B07E09B
:10117000206980B12068406800F07F0006F8010B0C
:10118000E08D401EE085E08D0028D9D1202084F834
:101190003A000020D0E720684068EFE70220CBE764
:1011A000704700002DE9F843044690F839001F46C7
:1011B00016460D4620284CD1C5B1BEB194F8380072
:1011C000012846D0012084F838004FF00008C4F808
:1011D0003C80212084F83900FFF7AEF9A6848146CF
:1011E000E684A068B0F5805F03D004E00120BDE88C
:1011F000F883206928B12E465FF0000584F8388016
:101200000EE00026FAE78021204600F0E5FAA0B9BA
:10121000AEB116F8010B21684860E08C401EE084F6
:10122000E08C4B464FF0000200970028EBD14FF0C6
:101230004001204600F0D0FA30B10320D7E735F85E
:10124000020BC0F30800E6E7202084F839000020F4
:10125000CDE70220CBE77047FEE710B5044640F229
:10126000064100F041FB010A94F80624C0B28A420C
:1012700005D194F80714814201D1002010BD01204E
:1012800010BD10B50446062100F02EFB010AA2791C
:10129000C0B28A4204D1E179814201D1002010BD5F
:1012A000012010BD30B585B000241448009401948D
:1012B00002940394816941F040018161816901F0E8
:1012C00040010491816941F00401816180690C4D04
:1012D00000F004000490002220212846FFF726F9A0
:1012E000202000900120CDE90104022003906946EE
:1012F0002846FFF717F805B030BD00000010024087
:10130000001801401CB500240F4800940D490194B9
:10131000016041F61F41C0E9011441F28731846147
:10132000C160FFF777FC08B1FEF750FF00946946F3
:1013300005480194FFF730FC002801D0FEF746FF76
:101340001CBD000000140040200000200C4810B517
:101350000A4901604FF47A314160002181600C221A
:10136000C160C0E904128161C161FFF749FE002834
:1013700003D0BDE81040FEF729BF10BD0038014082
:1013800068000020FEE77047704700002DE9F84331
:101390000024DFF8C480314E8DF800404FF48165A1
:1013A0004FF47A772046641CA4B2052816D029464B
:1013B0002948FEF7E0FE3B462A4627492748FFF723
:1013C00091FE2548FFF749FF58B1FF23012224A1D0
:1013D0002248FFF7E7FE30684068E3E70120BDE8F8
:1013E000F88398F8000002280CD00328DAD1FF23F4
:1013F00001221CA11948FFF7D5FE1B4903200880D4
:101400000020ECE7FF23012216A11448FFF7CAFED3
:101410001649114800F02CF81448FEF7CAFE3B4666
:101420002A4612490D48FFF7BDFE3B460122694698
:101430000A48FFF757FE9DF80000612808D072287F
:10144000B0D13068406800F073F80128AAD1C6E72F
:1014500030684068D4E70000B00400206800002035
:10146000720000006100000002000020A8000020BF
:1014700010B5C41C90F8052490F8040402EB002277
:101480000020C91C09E000BF34F9103003EBD3730E
:101490005B1021F81030401C00B29042F4DB10BD0C
:1014A00010B54FF47A73082207490848FFF71AFE6F
:1014B0000548FFF7E6FE18B903480078032801D075
:1014C000012010BD002010BD060000206800002093
:1014D00070B5124D00244FF47A76334608220F4936
:1014E0000F48FFF7FFFD0D48FFF7CBFE10B9287836
:1014F00001280AD0FF2301220AA10948FFF752FE62
:10150000641C062CE9D1012070BDFF23012206A135
:101510000348FFF747FE002070BD000006000020D2
:1015200068000020720000006100000070470000A9
:1015300038B500208DF800004FF47A7423464FF43C
:1015400081620C490C48FFF72DFE234601226946B3
:101550000948FFF7C7FD9DF80000612802D07228F6
:1015600002D004E0002038BD034800684068012034
:1015700038BD0000A800002068000020FEF7E2BF90
:1015800030B58FB028216846FEF7F5FD14210AA872
:10159000FEF7F1FD01210804CDE9001000240294BA
:1015A00002250491CDE907504FF4E01009906846F8
:1015B000FFF74CF90F20CDE90A056802CDE90C4090
:1015C00002210AA80E94FFF755F80FB030BD7047FE
:1015D0000148FFF7A2BB000020000020F0B5026820
:1015E0001C4B1D4D1D4E1E4F1E4C4FF0804C984203
:1015F00009D0A04207D0604505D0A84203D0B04230
:1016000001D0B84204D122F0700E4A6842EA0E02BC
:10161000984209D0A04207D0604505D0A84203D027
:10162000B04201D0B84203D122F44075CA682A43BF
:101630004D6922F080022A4302608A68C2620A6809
:101640008262984201D0A04201D10969016301215F
:101650004161F0BD002C0140000400400008004042
:10166000000C00400034014010B5406A0021C185E3
:10167000C184FFF716FC10BD0168CA6822F490729D
:10168000CA6001684A6922F001024A61202180F89B
:101690003A10704710B590F83A10222901D0022074
:1016A00010BD82684FF480539A4201D1016921B183
:1016B000816A9A421BD04AB10AE00268816A526884
:1016C000C2F308020A80816A891C08E0026972B1CB
:1016D0000268526802F07F020A70816A491C8162C6
:1016E000C18D491E0904090CC18503D016E00268AA
:1016F0005268F1E70168CA6822F02002CA600168F6
:10170000CA6822F48072CA6001684A6922F0010244
:101710004A61202180F83A10FFF742FD002010BDF9
:1017200070B5044600680169E26821F44051114334
:1017300001612169A0680843616908432168CA689A
:1017400041F20C639A430243CA6020684169A2696E
:1017500021F44071114341611E492068884202D141
:10176000FFF72EF801E0FFF71BF800EBC00101EBDB
:101770000012606864218000B2FBF0F3B3FBF1F368
:101780006FF018067343B2FBF0F5B2FBF0F605EB11
:101790008305322303EB0515B5FBF1F5B6FBF1F636
:1017A00005F0F00505EB0615B2FBF0F6B2FBF0F024
:1017B000B0FBF1F06FF01802504306EB800003EB32
:1017C0000010B0FBF1F0216800F00F0028448860A1
:1017D00070BD0000003801402DE9F04198461746E1
:1017E0000E460446069D1DE0681C1BD02DB1FEF779
:1017F000A3FEA0EB0800A84214D92068C16821F418
:10180000D071C1602068416921F00101416120204F
:1018100084F8390084F83A00002084F83800032066
:10182000BDE8F0812068006836EA000004D000209E
:10183000B842D9D00020F3E70120F9E710B51648E7
:10184000FFF730FB144C20680068C043800621D4A9
:101850004FF6FF73012211492046FFF743FC0F4862
:101860000178532912D143214170411CFF230122E9
:101870002046FFF797FC2068C16821F02001C16075
:1018800007490120087007490020088021686FF08F
:101890002000086010BD0000680000200400002047
:1018A0000000002002000020FEE70907090E0028C2
:1018B00004DB00F1E02080F80014704700F00F0016
:1018C00000F1E02080F8141D704702E008C8121FE4
:1018D00008C1002AFAD170477047002001E001C119
:1018E000121F002AFBD1704730B500224AF20104D2
:1018F0000EE000BF10F8013B5A400023D50702D08C
:1019000084EA520200E052085B1CDBB2082BF5D3DC
:10191000491E89B2EED2D04380B230BDFEF71AFE26
:10192000FFF72EFEFFF7BEFCFFF7ECFCFFF70EFD06
:101930001E48FFF7BBF91E4E3068C16841F0200118
:10194000C16000251B4C01274FF00208DFF86890AA
:1019500021E000BFB4F9020030B1012806D002280E
:101960000CD0032817D10CE0678014E0FFF7B0FD1E
:1019700008B1257012E0A4F802800CE0FFF706FD24
:1019800009E0FFF78DFD3068C16841F02001C160BA
:101990002570658002E020780028DBD16420FEF706
:1019A000AFFC20214846FEF7B9FDF4E720000020F7
:1019B0006800002000000020001801400000000026
:1019C00000000000010203040607080900000000EF
:1019D00001020304F41900080000002020000000A8
:1019E000CA180008141A00082000002098100000EF
:1019F000DA180008000000000000000000000000ED
:101A000000000000010000001000000000000000C5
:041A10000024F400BA
:0400000508000131BD
:00000001FF
